{
  "_format": "hh-sol-artifact-1",
  "contractName": "FairTicket",
  "sourceName": "src/contracts/FairTicket.sol",
  "abi": [
    {
      "inputs": [],
      "stateMutability": "nonpayable",
      "type": "constructor"
    },
    {
      "inputs": [],
      "name": "AccessControlBadConfirmation",
      "type": "error"
    },
    {
      "inputs": [
        {
          "internalType": "address",
          "name": "account",
          "type": "address"
        },
        {
          "internalType": "bytes32",
          "name": "neededRole",
          "type": "bytes32"
        }
      ],
      "name": "AccessControlUnauthorizedAccount",
      "type": "error"
    },
    {
      "inputs": [],
      "name": "AlreadyAssigned",
      "type": "error"
    },
    {
      "inputs": [],
      "name": "ChallengeExpired",
      "type": "error"
    },
    {
      "inputs": [],
      "name": "ECDSAInvalidSignature",
      "type": "error"
    },
    {
      "inputs": [
        {
          "internalType": "uint256",
          "name": "length",
          "type": "uint256"
        }
      ],
      "name": "ECDSAInvalidSignatureLength",
      "type": "error"
    },
    {
      "inputs": [
        {
          "internalType": "bytes32",
          "name": "s",
          "type": "bytes32"
        }
      ],
      "name": "ECDSAInvalidSignatureS",
      "type": "error"
    },
    {
      "inputs": [
        {
          "internalType": "address",
          "name": "sender",
          "type": "address"
        },
        {
          "internalType": "uint256",
          "name": "tokenId",
          "type": "uint256"
        },
        {
          "internalType": "address",
          "name": "owner",
          "type": "address"
        }
      ],
      "name": "ERC721IncorrectOwner",
      "type": "error"
    },
    {
      "inputs": [
        {
          "internalType": "address",
          "name": "operator",
          "type": "address"
        },
        {
          "internalType": "uint256",
          "name": "tokenId",
          "type": "uint256"
        }
      ],
      "name": "ERC721InsufficientApproval",
      "type": "error"
    },
    {
      "inputs": [
        {
          "internalType": "address",
          "name": "approver",
          "type": "address"
        }
      ],
      "name": "ERC721InvalidApprover",
      "type": "error"
    },
    {
      "inputs": [
        {
          "internalType": "address",
          "name": "operator",
          "type": "address"
        }
      ],
      "name": "ERC721InvalidOperator",
      "type": "error"
    },
    {
      "inputs": [
        {
          "internalType": "address",
          "name": "owner",
          "type": "address"
        }
      ],
      "name": "ERC721InvalidOwner",
      "type": "error"
    },
    {
      "inputs": [
        {
          "internalType": "address",
          "name": "receiver",
          "type": "address"
        }
      ],
      "name": "ERC721InvalidReceiver",
      "type": "error"
    },
    {
      "inputs": [
        {
          "internalType": "address",
          "name": "sender",
          "type": "address"
        }
      ],
      "name": "ERC721InvalidSender",
      "type": "error"
    },
    {
      "inputs": [
        {
          "internalType": "uint256",
          "name": "tokenId",
          "type": "uint256"
        }
      ],
      "name": "ERC721NonexistentToken",
      "type": "error"
    },
    {
      "inputs": [],
      "name": "EventNotActive",
      "type": "error"
    },
    {
      "inputs": [],
      "name": "EventSoldOut",
      "type": "error"
    },
    {
      "inputs": [],
      "name": "InvalidGuestIdentity",
      "type": "error"
    },
    {
      "inputs": [],
      "name": "NotTicketOwner",
      "type": "error"
    },
    {
      "inputs": [],
      "name": "ReentrancyGuardReentrantCall",
      "type": "error"
    },
    {
      "inputs": [],
      "name": "TicketAlreadyScanned",
      "type": "error"
    },
    {
      "inputs": [
        {
          "internalType": "uint256",
          "name": "unlockTime",
          "type": "uint256"
        }
      ],
      "name": "TicketLockedOut",
      "type": "error"
    },
    {
      "inputs": [],
      "name": "UnauthorizedOrganizer",
      "type": "error"
    },
    {
      "anonymous": false,
      "inputs": [
        {
          "indexed": true,
          "internalType": "address",
          "name": "owner",
          "type": "address"
        },
        {
          "indexed": true,
          "internalType": "address",
          "name": "approved",
          "type": "address"
        },
        {
          "indexed": true,
          "internalType": "uint256",
          "name": "tokenId",
          "type": "uint256"
        }
      ],
      "name": "Approval",
      "type": "event"
    },
    {
      "anonymous": false,
      "inputs": [
        {
          "indexed": true,
          "internalType": "address",
          "name": "owner",
          "type": "address"
        },
        {
          "indexed": true,
          "internalType": "address",
          "name": "operator",
          "type": "address"
        },
        {
          "indexed": false,
          "internalType": "bool",
          "name": "approved",
          "type": "bool"
        }
      ],
      "name": "ApprovalForAll",
      "type": "event"
    },
    {
      "anonymous": false,
      "inputs": [
        {
          "indexed": true,
          "internalType": "uint256",
          "name": "eventId",
          "type": "uint256"
        },
        {
          "indexed": true,
          "internalType": "address",
          "name": "organizer",
          "type": "address"
        },
        {
          "indexed": false,
          "internalType": "string",
          "name": "name",
          "type": "string"
        }
      ],
      "name": "EventCreated",
      "type": "event"
    },
    {
      "anonymous": false,
      "inputs": [
        {
          "indexed": true,
          "internalType": "bytes32",
          "name": "role",
          "type": "bytes32"
        },
        {
          "indexed": true,
          "internalType": "bytes32",
          "name": "previousAdminRole",
          "type": "bytes32"
        },
        {
          "indexed": true,
          "internalType": "bytes32",
          "name": "newAdminRole",
          "type": "bytes32"
        }
      ],
      "name": "RoleAdminChanged",
      "type": "event"
    },
    {
      "anonymous": false,
      "inputs": [
        {
          "indexed": true,
          "internalType": "bytes32",
          "name": "role",
          "type": "bytes32"
        },
        {
          "indexed": true,
          "internalType": "address",
          "name": "account",
          "type": "address"
        },
        {
          "indexed": true,
          "internalType": "address",
          "name": "sender",
          "type": "address"
        }
      ],
      "name": "RoleGranted",
      "type": "event"
    },
    {
      "anonymous": false,
      "inputs": [
        {
          "indexed": true,
          "internalType": "bytes32",
          "name": "role",
          "type": "bytes32"
        },
        {
          "indexed": true,
          "internalType": "address",
          "name": "account",
          "type": "address"
        },
        {
          "indexed": true,
          "internalType": "address",
          "name": "sender",
          "type": "address"
        }
      ],
      "name": "RoleRevoked",
      "type": "event"
    },
    {
      "anonymous": false,
      "inputs": [
        {
          "indexed": true,
          "internalType": "uint256",
          "name": "tokenId",
          "type": "uint256"
        },
        {
          "indexed": true,
          "internalType": "uint256",
          "name": "eventId",
          "type": "uint256"
        },
        {
          "indexed": true,
          "internalType": "address",
          "name": "owner",
          "type": "address"
        },
        {
          "indexed": false,
          "internalType": "bytes32",
          "name": "nameHash",
          "type": "bytes32"
        },
        {
          "indexed": false,
          "internalType": "bytes32",
          "name": "studentIdHash",
          "type": "bytes32"
        }
      ],
      "name": "TicketAssigned",
      "type": "event"
    },
    {
      "anonymous": false,
      "inputs": [
        {
          "indexed": true,
          "internalType": "uint256",
          "name": "tokenId",
          "type": "uint256"
        },
        {
          "indexed": false,
          "internalType": "uint256",
          "name": "unlockTime",
          "type": "uint256"
        }
      ],
      "name": "TicketLocked",
      "type": "event"
    },
    {
      "anonymous": false,
      "inputs": [
        {
          "indexed": true,
          "internalType": "uint256",
          "name": "tokenId",
          "type": "uint256"
        },
        {
          "indexed": true,
          "internalType": "uint256",
          "name": "eventId",
          "type": "uint256"
        },
        {
          "indexed": true,
          "internalType": "address",
          "name": "owner",
          "type": "address"
        }
      ],
      "name": "TicketMinted",
      "type": "event"
    },
    {
      "anonymous": false,
      "inputs": [
        {
          "indexed": true,
          "internalType": "uint256",
          "name": "tokenId",
          "type": "uint256"
        },
        {
          "indexed": true,
          "internalType": "uint256",
          "name": "eventId",
          "type": "uint256"
        },
        {
          "indexed": false,
          "internalType": "address",
          "name": "scannedBy",
          "type": "address"
        },
        {
          "indexed": false,
          "internalType": "uint256",
          "name": "nonce",
          "type": "uint256"
        }
      ],
      "name": "TicketScanned",
      "type": "event"
    },
    {
      "anonymous": false,
      "inputs": [
        {
          "indexed": true,
          "internalType": "address",
          "name": "from",
          "type": "address"
        },
        {
          "indexed": true,
          "internalType": "address",
          "name": "to",
          "type": "address"
        },
        {
          "indexed": true,
          "internalType": "uint256",
          "name": "tokenId",
          "type": "uint256"
        }
      ],
      "name": "Transfer",
      "type": "event"
    },
    {
      "anonymous": false,
      "inputs": [
        {
          "indexed": true,
          "internalType": "uint256",
          "name": "tokenId",
          "type": "uint256"
        },
        {
          "indexed": false,
          "internalType": "string",
          "name": "reason",
          "type": "string"
        }
      ],
      "name": "VerificationFailed",
      "type": "event"
    },
    {
      "inputs": [],
      "name": "BOOTH_OPERATOR_ROLE",
      "outputs": [
        {
          "internalType": "bytes32",
          "name": "",
          "type": "bytes32"
        }
      ],
      "stateMutability": "view",
      "type": "function"
    },
    {
      "inputs": [],
      "name": "DEFAULT_ADMIN_ROLE",
      "outputs": [
        {
          "internalType": "bytes32",
          "name": "",
          "type": "bytes32"
        }
      ],
      "stateMutability": "view",
      "type": "function"
    },
    {
      "inputs": [],
      "name": "ORGANIZER_ROLE",
      "outputs": [
        {
          "internalType": "bytes32",
          "name": "",
          "type": "bytes32"
        }
      ],
      "stateMutability": "view",
      "type": "function"
    },
    {
      "inputs": [
        {
          "internalType": "address",
          "name": "to",
          "type": "address"
        },
        {
          "internalType": "uint256",
          "name": "tokenId",
          "type": "uint256"
        }
      ],
      "name": "approve",
      "outputs": [],
      "stateMutability": "nonpayable",
      "type": "function"
    },
    {
      "inputs": [
        {
          "internalType": "uint32",
          "name": "eventId",
          "type": "uint32"
        },
        {
          "internalType": "address",
          "name": "to",
          "type": "address"
        },
        {
          "internalType": "bytes32",
          "name": "nameHash",
          "type": "bytes32"
        },
        {
          "internalType": "bytes32",
          "name": "studentIdHash",
          "type": "bytes32"
        }
      ],
      "name": "assignTicket",
      "outputs": [
        {
          "internalType": "uint256",
          "name": "",
          "type": "uint256"
        }
      ],
      "stateMutability": "nonpayable",
      "type": "function"
    },
    {
      "inputs": [
        {
          "internalType": "address",
          "name": "owner",
          "type": "address"
        }
      ],
      "name": "balanceOf",
      "outputs": [
        {
          "internalType": "uint256",
          "name": "",
          "type": "uint256"
        }
      ],
      "stateMutability": "view",
      "type": "function"
    },
    {
      "inputs": [
        {
          "internalType": "uint32",
          "name": "eventId",
          "type": "uint32"
        },
        {
          "internalType": "address[]",
          "name": "recipients",
          "type": "address[]"
        },
        {
          "internalType": "bytes32[]",
          "name": "nameHashes",
          "type": "bytes32[]"
        },
        {
          "internalType": "bytes32[]",
          "name": "studentIdHashes",
          "type": "bytes32[]"
        }
      ],
      "name": "batchAssign",
      "outputs": [],
      "stateMutability": "nonpayable",
      "type": "function"
    },
    {
      "inputs": [
        {
          "internalType": "uint32",
          "name": "eventId",
          "type": "uint32"
        },
        {
          "internalType": "address[]",
          "name": "recipients",
          "type": "address[]"
        }
      ],
      "name": "batchMint",
      "outputs": [],
      "stateMutability": "nonpayable",
      "type": "function"
    },
    {
      "inputs": [
        {
          "internalType": "uint256",
          "name": "tokenId",
          "type": "uint256"
        },
        {
          "internalType": "bytes32",
          "name": "nameHash",
          "type": "bytes32"
        },
        {
          "internalType": "bytes32",
          "name": "studentIdHash",
          "type": "bytes32"
        }
      ],
      "name": "checkInGuest",
      "outputs": [
        {
          "internalType": "bool",
          "name": "",
          "type": "bool"
        }
      ],
      "stateMutability": "nonpayable",
      "type": "function"
    },
    {
      "inputs": [
        {
          "internalType": "string",
          "name": "name",
          "type": "string"
        },
        {
          "internalType": "uint32",
          "name": "maxSupply",
          "type": "uint32"
        }
      ],
      "name": "createEvent",
      "outputs": [
        {
          "internalType": "uint32",
          "name": "",
          "type": "uint32"
        }
      ],
      "stateMutability": "nonpayable",
      "type": "function"
    },
    {
      "inputs": [
        {
          "internalType": "uint32",
          "name": "",
          "type": "uint32"
        },
        {
          "internalType": "uint256",
          "name": "",
          "type": "uint256"
        }
      ],
      "name": "eventTickets",
      "outputs": [
        {
          "internalType": "uint256",
          "name": "",
          "type": "uint256"
        }
      ],
      "stateMutability": "view",
      "type": "function"
    },
    {
      "inputs": [
        {
          "internalType": "uint32",
          "name": "",
          "type": "uint32"
        }
      ],
      "name": "events",
      "outputs": [
        {
          "internalType": "uint32",
          "name": "id",
          "type": "uint32"
        },
        {
          "internalType": "address",
          "name": "organizer",
          "type": "address"
        },
        {
          "internalType": "uint32",
          "name": "maxSupply",
          "type": "uint32"
        },
        {
          "internalType": "uint32",
          "name": "mintedCount",
          "type": "uint32"
        },
        {
          "internalType": "bool",
          "name": "isActive",
          "type": "bool"
        }
      ],
      "stateMutability": "view",
      "type": "function"
    },
    {
      "inputs": [
        {
          "internalType": "bytes32",
          "name": "nameHash",
          "type": "bytes32"
        },
        {
          "internalType": "bytes32",
          "name": "studentIdHash",
          "type": "bytes32"
        }
      ],
      "name": "generateGuestAddress",
      "outputs": [
        {
          "internalType": "address",
          "name": "",
          "type": "address"
        }
      ],
      "stateMutability": "pure",
      "type": "function"
    },
    {
      "inputs": [
        {
          "internalType": "uint256",
          "name": "tokenId",
          "type": "uint256"
        }
      ],
      "name": "getApproved",
      "outputs": [
        {
          "internalType": "address",
          "name": "",
          "type": "address"
        }
      ],
      "stateMutability": "view",
      "type": "function"
    },
    {
      "inputs": [
        {
          "internalType": "uint32",
          "name": "eventId",
          "type": "uint32"
        }
      ],
      "name": "getEventTickets",
      "outputs": [
        {
          "internalType": "uint256[]",
          "name": "",
          "type": "uint256[]"
        }
      ],
      "stateMutability": "view",
      "type": "function"
    },
    {
      "inputs": [
        {
          "internalType": "address",
          "name": "organizer",
          "type": "address"
        }
      ],
      "name": "getOrganizerEvents",
      "outputs": [
        {
          "internalType": "uint32[]",
          "name": "",
          "type": "uint32[]"
        }
      ],
      "stateMutability": "view",
      "type": "function"
    },
    {
      "inputs": [
        {
          "internalType": "bytes32",
          "name": "role",
          "type": "bytes32"
        }
      ],
      "name": "getRoleAdmin",
      "outputs": [
        {
          "internalType": "bytes32",
          "name": "",
          "type": "bytes32"
        }
      ],
      "stateMutability": "view",
      "type": "function"
    },
    {
      "inputs": [
        {
          "internalType": "uint256",
          "name": "tokenId",
          "type": "uint256"
        }
      ],
      "name": "getTicketDetails",
      "outputs": [
        {
          "components": [
            {
              "internalType": "uint32",
              "name": "eventId",
              "type": "uint32"
            },
            {
              "internalType": "uint96",
              "name": "assignedAt",
              "type": "uint96"
            },
            {
              "internalType": "address",
              "name": "assignedBy",
              "type": "address"
            },
            {
              "internalType": "bytes32",
              "name": "holderNameHash",
              "type": "bytes32"
            },
            {
              "internalType": "bytes32",
              "name": "holderStudentIdHash",
              "type": "bytes32"
            },
            {
              "internalType": "bool",
              "name": "isScanned",
              "type": "bool"
            }
          ],
          "internalType": "struct FairTicket.TicketData",
          "name": "",
          "type": "tuple"
        },
        {
          "internalType": "address",
          "name": "",
          "type": "address"
        }
      ],
      "stateMutability": "view",
      "type": "function"
    },
    {
      "inputs": [
        {
          "internalType": "bytes32",
          "name": "role",
          "type": "bytes32"
        },
        {
          "internalType": "address",
          "name": "account",
          "type": "address"
        }
      ],
      "name": "grantRole",
      "outputs": [],
      "stateMutability": "nonpayable",
      "type": "function"
    },
    {
      "inputs": [
        {
          "internalType": "bytes32",
          "name": "role",
          "type": "bytes32"
        },
        {
          "internalType": "address",
          "name": "account",
          "type": "address"
        }
      ],
      "name": "hasRole",
      "outputs": [
        {
          "internalType": "bool",
          "name": "",
          "type": "bool"
        }
      ],
      "stateMutability": "view",
      "type": "function"
    },
    {
      "inputs": [
        {
          "internalType": "address",
          "name": "owner",
          "type": "address"
        },
        {
          "internalType": "address",
          "name": "operator",
          "type": "address"
        }
      ],
      "name": "isApprovedForAll",
      "outputs": [
        {
          "internalType": "bool",
          "name": "",
          "type": "bool"
        }
      ],
      "stateMutability": "view",
      "type": "function"
    },
    {
      "inputs": [
        {
          "internalType": "uint32",
          "name": "eventId",
          "type": "uint32"
        },
        {
          "internalType": "address",
          "name": "to",
          "type": "address"
        }
      ],
      "name": "mintTicket",
      "outputs": [
        {
          "internalType": "uint256",
          "name": "",
          "type": "uint256"
        }
      ],
      "stateMutability": "nonpayable",
      "type": "function"
    },
    {
      "inputs": [],
      "name": "name",
      "outputs": [
        {
          "internalType": "string",
          "name": "",
          "type": "string"
        }
      ],
      "stateMutability": "view",
      "type": "function"
    },
    {
      "inputs": [
        {
          "internalType": "address",
          "name": "",
          "type": "address"
        },
        {
          "internalType": "uint256",
          "name": "",
          "type": "uint256"
        }
      ],
      "name": "organizerEvents",
      "outputs": [
        {
          "internalType": "uint32",
          "name": "",
          "type": "uint32"
        }
      ],
      "stateMutability": "view",
      "type": "function"
    },
    {
      "inputs": [
        {
          "internalType": "uint256",
          "name": "tokenId",
          "type": "uint256"
        }
      ],
      "name": "ownerOf",
      "outputs": [
        {
          "internalType": "address",
          "name": "",
          "type": "address"
        }
      ],
      "stateMutability": "view",
      "type": "function"
    },
    {
      "inputs": [
        {
          "internalType": "bytes32",
          "name": "role",
          "type": "bytes32"
        },
        {
          "internalType": "address",
          "name": "callerConfirmation",
          "type": "address"
        }
      ],
      "name": "renounceRole",
      "outputs": [],
      "stateMutability": "nonpayable",
      "type": "function"
    },
    {
      "inputs": [
        {
          "internalType": "bytes32",
          "name": "role",
          "type": "bytes32"
        },
        {
          "internalType": "address",
          "name": "account",
          "type": "address"
        }
      ],
      "name": "revokeRole",
      "outputs": [],
      "stateMutability": "nonpayable",
      "type": "function"
    },
    {
      "inputs": [
        {
          "internalType": "address",
          "name": "from",
          "type": "address"
        },
        {
          "internalType": "address",
          "name": "to",
          "type": "address"
        },
        {
          "internalType": "uint256",
          "name": "tokenId",
          "type": "uint256"
        }
      ],
      "name": "safeTransferFrom",
      "outputs": [],
      "stateMutability": "nonpayable",
      "type": "function"
    },
    {
      "inputs": [
        {
          "internalType": "address",
          "name": "from",
          "type": "address"
        },
        {
          "internalType": "address",
          "name": "to",
          "type": "address"
        },
        {
          "internalType": "uint256",
          "name": "tokenId",
          "type": "uint256"
        },
        {
          "internalType": "bytes",
          "name": "data",
          "type": "bytes"
        }
      ],
      "name": "safeTransferFrom",
      "outputs": [],
      "stateMutability": "nonpayable",
      "type": "function"
    },
    {
      "inputs": [
        {
          "internalType": "address",
          "name": "operator",
          "type": "address"
        },
        {
          "internalType": "bool",
          "name": "approved",
          "type": "bool"
        }
      ],
      "name": "setApprovalForAll",
      "outputs": [],
      "stateMutability": "nonpayable",
      "type": "function"
    },
    {
      "inputs": [
        {
          "internalType": "bytes4",
          "name": "interfaceId",
          "type": "bytes4"
        }
      ],
      "name": "supportsInterface",
      "outputs": [
        {
          "internalType": "bool",
          "name": "",
          "type": "bool"
        }
      ],
      "stateMutability": "view",
      "type": "function"
    },
    {
      "inputs": [],
      "name": "symbol",
      "outputs": [
        {
          "internalType": "string",
          "name": "",
          "type": "string"
        }
      ],
      "stateMutability": "view",
      "type": "function"
    },
    {
      "inputs": [
        {
          "internalType": "uint256",
          "name": "",
          "type": "uint256"
        }
      ],
      "name": "tickets",
      "outputs": [
        {
          "internalType": "uint32",
          "name": "eventId",
          "type": "uint32"
        },
        {
          "internalType": "uint96",
          "name": "assignedAt",
          "type": "uint96"
        },
        {
          "internalType": "address",
          "name": "assignedBy",
          "type": "address"
        },
        {
          "internalType": "bytes32",
          "name": "holderNameHash",
          "type": "bytes32"
        },
        {
          "internalType": "bytes32",
          "name": "holderStudentIdHash",
          "type": "bytes32"
        },
        {
          "internalType": "bool",
          "name": "isScanned",
          "type": "bool"
        }
      ],
      "stateMutability": "view",
      "type": "function"
    },
    {
      "inputs": [
        {
          "internalType": "uint256",
          "name": "tokenId",
          "type": "uint256"
        }
      ],
      "name": "tokenURI",
      "outputs": [
        {
          "internalType": "string",
          "name": "",
          "type": "string"
        }
      ],
      "stateMutability": "view",
      "type": "function"
    },
    {
      "inputs": [
        {
          "internalType": "address",
          "name": "from",
          "type": "address"
        },
        {
          "internalType": "address",
          "name": "to",
          "type": "address"
        },
        {
          "internalType": "uint256",
          "name": "tokenId",
          "type": "uint256"
        }
      ],
      "name": "transferFrom",
      "outputs": [],
      "stateMutability": "nonpayable",
      "type": "function"
    },
    {
      "inputs": [
        {
          "internalType": "uint256",
          "name": "tokenId",
          "type": "uint256"
        },
        {
          "internalType": "bytes32",
          "name": "nameHash",
          "type": "bytes32"
        },
        {
          "internalType": "bytes32",
          "name": "studentIdHash",
          "type": "bytes32"
        }
      ],
      "name": "updateTicketMetadata",
      "outputs": [],
      "stateMutability": "nonpayable",
      "type": "function"
    },
    {
      "inputs": [
        {
          "internalType": "uint256",
          "name": "tokenId",
          "type": "uint256"
        },
        {
          "internalType": "uint256",
          "name": "nonce",
          "type": "uint256"
        },
        {
          "internalType": "uint256",
          "name": "deadline",
          "type": "uint256"
        },
        {
          "internalType": "bytes",
          "name": "signature",
          "type": "bytes"
        }
      ],
      "name": "verifyTicket",
      "outputs": [
        {
          "internalType": "bool",
          "name": "",
          "type": "bool"
        }
      ],
      "stateMutability": "nonpayable",
      "type": "function"
    }
  ],
  "bytecode": "0x60806040523480156200001157600080fd5b506040518060400160405280600a81526020016911985a5c951a58dad95d60b21b81525060405180604001604052806004815260200163119512d560e21b8152508160009081620000639190620001e6565b506001620000728282620001e6565b5050600160075550620000876000336200008e565b50620002b2565b60008281526006602090815260408083206001600160a01b038516845290915281205460ff16620001375760008381526006602090815260408083206001600160a01b03861684529091529020805460ff19166001179055620000ee3390565b6001600160a01b0316826001600160a01b0316847f2f8788117e7eff1d82e926ec794901d17c78024a50270940304540a733656f0d60405160405180910390a45060016200013b565b5060005b92915050565b634e487b7160e01b600052604160045260246000fd5b600181811c908216806200016c57607f821691505b6020821081036200018d57634e487b7160e01b600052602260045260246000fd5b50919050565b601f821115620001e157600081815260208120601f850160051c81016020861015620001bc5750805b601f850160051c820191505b81811015620001dd57828155600101620001c8565b5050505b505050565b81516001600160401b0381111562000202576200020262000141565b6200021a8162000213845462000157565b8462000193565b602080601f831160018114620002525760008415620002395750858301515b600019600386901b1c1916600185901b178555620001dd565b600085815260208120601f198616915b82811015620002835788860151825594840194600190910190840162000262565b5085821015620002a25787850151600019600388901b60f8161c191681555b5050505050600190811b01905550565b61319980620002c26000396000f3fe608060405234801561001057600080fd5b50600436106102265760003560e01c806370a0823111610130578063bbfbcbea116100b8578063e233680f1161007c578063e233680f146106aa578063e4aa47e3146106bf578063e985e9c5146106d2578063f111fb68146106e5578063ff9f5970146106f857600080fd5b8063bbfbcbea1461063e578063bf6ae4cf14610651578063c87b56dd14610664578063c9c2d99714610677578063d547741f1461069757600080fd5b806391d14854116100ff57806391d14854146105f557806395d89b4114610608578063a217fddf14610610578063a22cb46514610618578063b88d4fde1461062b57600080fd5b806370a0823114610595578063729ae4a7146105a85780637909cb59146105bb5780637b108e57146105e257600080fd5b80632bdd59b0116101b357806342842e0e1161018257806342842e0e1461047657806350b44712146104895780635469638d1461053557806359b2aabf1461056f5780636352211e1461058257600080fd5b80632bdd59b0146104155780632f2ff15d1461043d578063360b92731461045057806336568abe1461046357600080fd5b8063095ea7b3116101fa578063095ea7b3146102b45780631472d53f146102c957806323b872dd14610364578063248a9ca31461037757806324c141601461039a57600080fd5b8062c7001e1461022b57806301ffc9a71461025157806306fdde0314610274578063081812fc14610289575b600080fd5b61023e61023936600461293a565b610718565b6040519081526020015b60405180910390f35b61026461025f366004612987565b61093b565b6040519015158152602001610248565b61027c610946565b60405161024891906129f4565b61029c610297366004612a07565b6109d8565b6040516001600160a01b039091168152602001610248565b6102c76102c2366004612a20565b610a01565b005b6103236102d7366004612a4c565b600a602052600090815260409020805460019091015463ffffffff808316926001600160a01b03600160201b82041692600160c01b8204831692600160e01b9092049091169060ff1685565b6040805163ffffffff96871681526001600160a01b03909516602086015292851692840192909252929092166060820152901515608082015260a001610248565b6102c7610372366004612a67565b610a10565b61023e610385366004612a07565b60009081526006602052604090206001015490565b6103ad6103a8366004612a07565b610aa0565b60408051835163ffffffff1681526020808501516001600160601b031690820152838201516001600160a01b0390811692820192909252606080850151908201526080808501519082015260a0938401511515938101939093521660c082015260e001610248565b610428610423366004612af1565b610bad565b60405163ffffffff9091168152602001610248565b6102c761044b366004612b45565b610d39565b61023e61045e366004612b6a565b610d5e565b6102c7610471366004612b45565b610f81565b6102c7610484366004612a67565b610fb9565b6104e9610497366004612a07565b600b602052600090815260409020805460018201546002830154600384015460049094015463ffffffff841694600160201b9094046001600160601b0316936001600160a01b03909316929060ff1686565b6040805163ffffffff90971687526001600160601b0390951660208701526001600160a01b039093169385019390935260608401526080830191909152151560a082015260c001610248565b61029c610543366004612bae565b604080516020808201949094528082019290925280518083038201815260609092019052805191012090565b6102c761057d366004612bd0565b610fd4565b61029c610590366004612a07565b61108e565b61023e6105a3366004612bfc565b611099565b6102c76105b6366004612c5e565b6110e1565b61023e7f4d2e7a1e3f5dd6e203f087b15756ccf0e4ccd947fe1b639a38540089a1e47f6381565b6102646105f0366004612d09565b61146e565b610264610603366004612b45565b6117d4565b61027c6117ff565b61023e600081565b6102c7610626366004612d6a565b61180e565b6102c7610639366004612db3565b611819565b6102c761064c366004612e93565b611831565b61026461065f366004612bd0565b611adf565b61027c610672366004612a07565b611c0c565b61068a610685366004612a4c565b611c80565b6040516102489190612ee6565b6102c76106a5366004612b45565b611ce9565b61023e60008051602061314483398151915281565b6104286106cd366004612a20565b611d0e565b6102646106e0366004612f2a565b611d57565b61023e6106f3366004612f48565b611d85565b61070b610706366004612bfc565b611db6565b6040516102489190612f64565b6000610722611e4c565b63ffffffff83166000908152600a602052604090208054600160201b90046001600160a01b03163314610768576040516330e5eedf60e21b815260040160405180910390fd5b600181015460ff1661078d576040516301e1837960e31b815260040160405180910390fd5b805463ffffffff600160c01b82048116600160e01b90920416106107c45760405163171d80db60e11b815260040160405180910390fd5b8054600163ffffffff600160e01b80840482169290920116026001600160e01b0390911617815560098054600091826107fc83612fb8565b909155506040805160c08101825263ffffffff888116808352426001600160601b039081166020808601918252338688019081526000606088018181526080890182815260a08a018381528c8452600b86528b84209a518b5497519a166001600160801b031990971696909617600160201b99909716989098029590951788559051600180890180546001600160a01b0319166001600160a01b0390931692909217909155935160028801559451600387015590516004909501805460ff191695151595909517909455908252600d8352928120805493840181558152200181905590506108ea8482611e76565b836001600160a01b03168563ffffffff16827f085ec0eff4bf526b0dd054adffcd8bd8da42126a1133ce302042973f32029fb060405160405180910390a49150506109356001600755565b92915050565b600061093582611e90565b60606000805461095590612fd1565b80601f016020809104026020016040519081016040528092919081815260200182805461098190612fd1565b80156109ce5780601f106109a3576101008083540402835291602001916109ce565b820191906000526020600020905b8154815290600101906020018083116109b157829003601f168201915b5050505050905090565b60006109e382611eb5565b506000828152600460205260409020546001600160a01b0316610935565b610a0c828233611eee565b5050565b6001600160a01b038216610a3f57604051633250574960e11b8152600060048201526024015b60405180910390fd5b6000610a4c838333611efb565b9050836001600160a01b0316816001600160a01b031614610a9a576040516364283d7b60e01b81526001600160a01b0380861660048301526024820184905282166044820152606401610a36565b50505050565b6040805160c081018252600080825260208201819052918101829052606081018290526080810182905260a08101919091526000828152600b60209081526040808320815160c081018352815463ffffffff81168252600160201b90046001600160601b03169381019390935260018101546001600160a01b031683830152600281015460608401526003810154608084015260049081015460ff16151560a084015290516331a9108f60e11b815290810185905282903090636352211e90602401602060405180830381865afa925050508015610b9b575060408051601f3d908101601f19168201909252610b989181019061300b565b60015b15610ba35790505b9094909350915050565b6008805463ffffffff8082166001908101821663ffffffff1990931683179093556040805160a081018252838152336020808301828152888616848601908152600060608601818152608087018b81528a8352600a909552878220965187549451935191518a16600160e01b026001600160e01b03928b16600160c01b02929092166001600160c01b036001600160a01b0395909516600160201b026001600160c01b031990961691909a16179390931791909116969096171783555191909501805491151560ff199092169190911790555190929082907ffc695dea2478fb938a11068aeedddd7046a5fe655f136e30a325d353fe187a4590610cb49089908990613028565b60405180910390a3336000818152600c602090815260408220805460018101825590835291206008820401805460079092166004026101000a63ffffffff8181021990931692851602919091179055610d2e907f4d2e7a1e3f5dd6e203f087b15756ccf0e4ccd947fe1b639a38540089a1e47f6390611ff4565b5090505b9392505050565b600082815260066020526040902060010154610d5481612088565b610a9a8383611ff4565b6000600080516020613144833981519152610d7881612088565b610d80611e4c565b63ffffffff86166000908152600a60205260409020600181015460ff16610dba576040516301e1837960e31b815260040160405180910390fd5b805463ffffffff600160c01b82048116600160e01b9092041610610df15760405163171d80db60e11b815260040160405180910390fd5b8054600163ffffffff600160e01b80840482169290920116026001600160e01b039091161781556009805460009182610e2983612fb8565b909155506040805160c08101825263ffffffff8b8116808352426001600160601b03908116602080860191825233868801908152606087018f8152608088018f8152600060a08a018181528c8252600b86528b82209a518b5497519a166001600160801b031990971696909617600160201b99909716989098029590951788559051600180890180546001600160a01b0319166001600160a01b0390931692909217909155905160028801559251600387015590516004909501805460ff191695151595909517909455908252600d835292812080549384018155815220018190559050610f178782611e76565b866001600160a01b03168863ffffffff16827f13db257e9ff45e3d023c2dceb891f3fdfb72cbc6e0b2c74123cd29ac7cf1f0f58989604051610f63929190918252602082015260400190565b60405180910390a4925050610f786001600755565b50949350505050565b6001600160a01b0381163314610faa5760405163334bd91960e11b815260040160405180910390fd5b610fb48282612095565b505050565b610fb483838360405180602001604052806000815250611819565b600080516020613144833981519152610fec81612088565b6000848152600b6020526040902060028101541561101d57604051639688dc5160e01b815260040160405180910390fd5b60028101849055600381018390556110348561108e565b815460408051878152602081018790526001600160a01b03939093169263ffffffff9092169188917f13db257e9ff45e3d023c2dceb891f3fdfb72cbc6e0b2c74123cd29ac7cf1f0f5910160405180910390a45050505050565b600061093582611eb5565b60006001600160a01b0382166110c5576040516322718ad960e21b815260006004820152602401610a36565b506001600160a01b031660009081526003602052604090205490565b6000805160206131448339815191526110f981612088565b611101611e4c565b63ffffffff88166000908152600a60205260409020600181015460ff1661113b576040516301e1837960e31b815260040160405180910390fd5b8054879063ffffffff600160c01b8204811691611161918491600160e01b900416613057565b11156111805760405163171d80db60e11b815260040160405180910390fd5b815481908390601c906111a1908490600160e01b900463ffffffff1661306a565b92506101000a81548163ffffffff021916908363ffffffff16021790555060005b818110156114575760098054600091826111db83612fb8565b9190505590506040518060c001604052808d63ffffffff168152602001426001600160601b03168152602001336001600160a01b031681526020018a8a858181106112285761122861308e565b9050602002013581526020018888858181106112465761124661308e565b90506020020135815260200160001515815250600b600083815260200190815260200160002060008201518160000160006101000a81548163ffffffff021916908363ffffffff16021790555060208201518160000160046101000a8154816001600160601b0302191690836001600160601b0316021790555060408201518160010160006101000a8154816001600160a01b0302191690836001600160a01b03160217905550606082015181600201556080820151816003015560a08201518160040160006101000a81548160ff021916908315150217905550905050600d60008d63ffffffff1663ffffffff16815260200190815260200160002081908060018154018082558091505060019003906000526020600020016000909190919091505561139a8b8b8481811061137f5761137f61308e565b90506020020160208101906113949190612bfc565b82611e76565b8a8a838181106113ac576113ac61308e565b90506020020160208101906113c19190612bfc565b6001600160a01b03168c63ffffffff16827f13db257e9ff45e3d023c2dceb891f3fdfb72cbc6e0b2c74123cd29ac7cf1f0f58c8c878181106114055761140561308e565b905060200201358b8b8881811061141e5761141e61308e565b9050602002013560405161143c929190918252602082015260400190565b60405180910390a4508061144f81612fb8565b9150506111c2565b5050506114646001600755565b5050505050505050565b6000611478611e4c565b6000868152600b60209081526040808320805463ffffffff168452600a90925290912054600160201b90046001600160a01b031633146114cb576040516330e5eedf60e21b815260040160405180910390fd5b600481015460ff16156114f15760405163b71823c160e01b815260040160405180910390fd5b6000878152600f6020526040902054421015611534576000878152600f602052604090819020549051630e4bd08960e41b81526004810191909152602401610a36565b844211156115555760405163f06506c560e01b815260040160405180910390fd5b6040805160208101899052908101879052606080820187905230901b6bffffffffffffffffffffffff1916608082015246609482015260009060b40160405160208183030381529060405280519060200120905060006115e2827f19457468657265756d205369676e6564204d6573736167653a0a3332000000006000908152601c91909152603c902090565b905060006116268288888080601f01602080910402602001604051908101604052809392919081815260200183838082843760009201919091525061210292505050565b90506116318a61108e565b6001600160a01b0316816001600160a01b0316146117455760008a8152600e602052604090208054600101908190556003116116d05761167361012c42613057565b60008b8152600f60208181526040808420948555600e82528084209390935552905490518b917f02f5015fd9cdac0ad2fb9c929fdecf7df2f369270352baf37dcfd6330c9a51e1916116c791815260200190565b60405180910390a25b897f0b6e215321022a996e21bf7fe14c010e5df04b43641ad4a1c808a4ffd6b98ccf604051611730906020808252601a908201527f496e76616c6964205369676e6174757265206f72204f776e6572000000000000604082015260600190565b60405180910390a260009450505050506117c1565b60008a8152600e6020908152604080832083905560048701805460ff19166001179055600287018390556003870192909255855482513381529182018c905263ffffffff16918c917f0881179158894b56d3ac22fef040e7417acb5a8663d6eda8e3aeef7898dedb0f910160405180910390a360019450505050505b6117cb6001600755565b95945050505050565b60009182526006602090815260408084206001600160a01b0393909316845291905290205460ff1690565b60606001805461095590612fd1565b610a0c33838361212c565b611824848484610a10565b610a9a33858585856121cb565b7f4d2e7a1e3f5dd6e203f087b15756ccf0e4ccd947fe1b639a38540089a1e47f6361185b81612088565b63ffffffff84166000908152600a602052604090208054600160201b90046001600160a01b031633146118a1576040516330e5eedf60e21b815260040160405180910390fd5b600181015460ff166118c6576040516301e1837960e31b815260040160405180910390fd5b8054839063ffffffff600160c01b82048116916118ec918491600160e01b900416613057565b111561190b5760405163171d80db60e11b815260040160405180910390fd5b815481908390601c9061192c908490600160e01b900463ffffffff1661306a565b92506101000a81548163ffffffff021916908363ffffffff16021790555060005b81811015611ad657600980546000918261196683612fb8565b909155506040805160c08101825263ffffffff8b8116808352426001600160601b039081166020808601918252338688019081526000606088018181526080890182815260a08a018381528c8452600b86528b84209a518b5497519a166001600160801b031990971696909617600160201b99909716989098029590951788559051600180890180546001600160a01b0319166001600160a01b0390931692909217909155935160028801559451600387015590516004909501805460ff191695151595909517909455908252600d835292812080549384018155815220018190559050611a5f87878481811061137f5761137f61308e565b868683818110611a7157611a7161308e565b9050602002016020810190611a869190612bfc565b6001600160a01b03168863ffffffff16827f085ec0eff4bf526b0dd054adffcd8bd8da42126a1133ce302042973f32029fb060405160405180910390a45080611ace81612fb8565b91505061194d565b50505050505050565b6000611ae9611e4c565b6000848152600b60209081526040808320805463ffffffff168452600a90925290912054600160201b90046001600160a01b03163314611b3c576040516330e5eedf60e21b815260040160405180910390fd5b600481015460ff1615611b625760405163b71823c160e01b815260040160405180910390fd5b838160020154141580611b79575082816003015414155b15611b97576040516354b96e8960e11b815260040160405180910390fd5b60048101805460ff1916600117905560006002820181905560038201819055815460408051338152602081019390935263ffffffff9091169187917f0881179158894b56d3ac22fef040e7417acb5a8663d6eda8e3aeef7898dedb0f910160405180910390a36001915050610d326001600755565b6060611c1782611eb5565b506000611c2f60408051602081019091526000815290565b90506000815111611c4f5760405180602001604052806000815250610d32565b80611c59846122f6565b604051602001611c6a9291906130a4565b6040516020818303038152906040529392505050565b63ffffffff81166000908152600d6020908152604091829020805483518184028101840190945280845260609392830182828015611cdd57602002820191906000526020600020905b815481526020019060010190808311611cc9575b50505050509050919050565b600082815260066020526040902060010154611d0481612088565b610a9a8383612095565b600c6020528160005260406000208181548110611d2a57600080fd5b9060005260206000209060089182820401919006600402915091509054906101000a900463ffffffff1681565b6001600160a01b03918216600090815260056020908152604080832093909416825291909152205460ff1690565b600d6020528160005260406000208181548110611da157600080fd5b90600052602060002001600091509150505481565b6001600160a01b0381166000908152600c6020908152604091829020805483518184028101840190945280845260609392830182828015611cdd57602002820191906000526020600020906000905b82829054906101000a900463ffffffff1663ffffffff1681526020019060040190602082600301049283019260010382029150808411611e05575094979650505050505050565b600260075403611e6f57604051633ee5aeb560e01b815260040160405180910390fd5b6002600755565b610a0c828260405180602001604052806000815250612389565b60006001600160e01b03198216637965db0b60e01b14806109355750610935826123a1565b6000818152600260205260408120546001600160a01b03168061093557604051637e27328960e01b815260048101849052602401610a36565b610fb483838360016123f1565b6000828152600260205260408120546001600160a01b0390811690831615611f2857611f288184866124f7565b6001600160a01b03811615611f6657611f456000856000806123f1565b6001600160a01b038116600090815260036020526040902080546000190190555b6001600160a01b03851615611f95576001600160a01b0385166000908152600360205260409020805460010190555b60008481526002602052604080822080546001600160a01b0319166001600160a01b0389811691821790925591518793918516917fddf252ad1be2c89b69c2b068fc378daa952ba7f163c4a11628f55a4df523b3ef91a4949350505050565b600061200083836117d4565b6120805760008381526006602090815260408083206001600160a01b03861684529091529020805460ff191660011790556120383390565b6001600160a01b0316826001600160a01b0316847f2f8788117e7eff1d82e926ec794901d17c78024a50270940304540a733656f0d60405160405180910390a4506001610935565b506000610935565b612092813361255b565b50565b60006120a183836117d4565b156120805760008381526006602090815260408083206001600160a01b0386168085529252808320805460ff1916905551339286917ff6391f5c32d9c69d2a47ea670b442974b53935d1edc7fd64eb21e047a839171b9190a4506001610935565b6000806000806121128686612594565b92509250925061212282826125e1565b5090949350505050565b6001600160a01b03821661215e57604051630b61174360e31b81526001600160a01b0383166004820152602401610a36565b6001600160a01b03838116600081815260056020908152604080832094871680845294825291829020805460ff191686151590811790915591519182527f17307eab39ab6107e8899845ad3d59bd9653f200f220920489ca2b5937696c31910160405180910390a3505050565b6001600160a01b0383163b156122ef57604051630a85bd0160e11b81526001600160a01b0384169063150b7a029061220d9088908890879087906004016130d3565b6020604051808303816000875af1925050508015612248575060408051601f3d908101601f1916820190925261224591810190613110565b60015b6122b1573d808015612276576040519150601f19603f3d011682016040523d82523d6000602084013e61227b565b606091505b5080516000036122a957604051633250574960e11b81526001600160a01b0385166004820152602401610a36565b805160208201fd5b6001600160e01b03198116630a85bd0160e11b146122ed57604051633250574960e11b81526001600160a01b0385166004820152602401610a36565b505b5050505050565b606060006123038361269a565b600101905060008167ffffffffffffffff81111561232357612323612d9d565b6040519080825280601f01601f19166020018201604052801561234d576020820181803683370190505b5090508181016020015b600019016f181899199a1a9b1b9c1cb0b131b232b360811b600a86061a8153600a850494508461235757509392505050565b6123938383612772565b610fb43360008585856121cb565b60006001600160e01b031982166380ac58cd60e01b14806123d257506001600160e01b03198216635b5e139f60e01b145b8061093557506301ffc9a760e01b6001600160e01b0319831614610935565b808061240557506001600160a01b03821615155b156124c757600061241584611eb5565b90506001600160a01b038316158015906124415750826001600160a01b0316816001600160a01b031614155b801561245457506124528184611d57565b155b1561247d5760405163a9fbf51f60e01b81526001600160a01b0384166004820152602401610a36565b81156124c55783856001600160a01b0316826001600160a01b03167f8c5be1e5ebec7d5bd14f71427d1e84f3dd0314c0f7b2291e5b200ac8c7c3b92560405160405180910390a45b505b5050600090815260046020526040902080546001600160a01b0319166001600160a01b0392909216919091179055565b6125028383836127d7565b610fb4576001600160a01b03831661253057604051637e27328960e01b815260048101829052602401610a36565b60405163177e802f60e01b81526001600160a01b038316600482015260248101829052604401610a36565b61256582826117d4565b610a0c5760405163e2517d3f60e01b81526001600160a01b038216600482015260248101839052604401610a36565b600080600083516041036125ce5760208401516040850151606086015160001a6125c08882858561283d565b9550955095505050506125da565b50508151600091506002905b9250925092565b60008260038111156125f5576125f561312d565b036125fe575050565b60018260038111156126125761261261312d565b036126305760405163f645eedf60e01b815260040160405180910390fd5b60028260038111156126445761264461312d565b036126655760405163fce698f760e01b815260048101829052602401610a36565b60038260038111156126795761267961312d565b03610a0c576040516335e2f38360e21b815260048101829052602401610a36565b60008072184f03e93ff9f4daa797ed6e38ed64bf6a1f0160401b83106126d95772184f03e93ff9f4daa797ed6e38ed64bf6a1f0160401b830492506040015b6d04ee2d6d415b85acef81000000008310612705576d04ee2d6d415b85acef8100000000830492506020015b662386f26fc10000831061272357662386f26fc10000830492506010015b6305f5e100831061273b576305f5e100830492506008015b612710831061274f57612710830492506004015b60648310612761576064830492506002015b600a83106109355760010192915050565b6001600160a01b03821661279c57604051633250574960e11b815260006004820152602401610a36565b60006127aa83836000611efb565b90506001600160a01b03811615610fb4576040516339e3563760e11b815260006004820152602401610a36565b60006001600160a01b038316158015906128355750826001600160a01b0316846001600160a01b0316148061281157506128118484611d57565b8061283557506000828152600460205260409020546001600160a01b038481169116145b949350505050565b600080807f7fffffffffffffffffffffffffffffff5d576e7357a4501ddfe92f46681b20a08411156128785750600091506003905082612902565b604080516000808252602082018084528a905260ff891692820192909252606081018790526080810186905260019060a0016020604051602081039080840390855afa1580156128cc573d6000803e3d6000fd5b5050604051601f1901519150506001600160a01b0381166128f857506000925060019150829050612902565b9250600091508190505b9450945094915050565b803563ffffffff8116811461292057600080fd5b919050565b6001600160a01b038116811461209257600080fd5b6000806040838503121561294d57600080fd5b6129568361290c565b9150602083013561296681612925565b809150509250929050565b6001600160e01b03198116811461209257600080fd5b60006020828403121561299957600080fd5b8135610d3281612971565b60005b838110156129bf5781810151838201526020016129a7565b50506000910152565b600081518084526129e08160208601602086016129a4565b601f01601f19169290920160200192915050565b602081526000610d3260208301846129c8565b600060208284031215612a1957600080fd5b5035919050565b60008060408385031215612a3357600080fd5b8235612a3e81612925565b946020939093013593505050565b600060208284031215612a5e57600080fd5b610d328261290c565b600080600060608486031215612a7c57600080fd5b8335612a8781612925565b92506020840135612a9781612925565b929592945050506040919091013590565b60008083601f840112612aba57600080fd5b50813567ffffffffffffffff811115612ad257600080fd5b602083019150836020828501011115612aea57600080fd5b9250929050565b600080600060408486031215612b0657600080fd5b833567ffffffffffffffff811115612b1d57600080fd5b612b2986828701612aa8565b9094509250612b3c90506020850161290c565b90509250925092565b60008060408385031215612b5857600080fd5b82359150602083013561296681612925565b60008060008060808587031215612b8057600080fd5b612b898561290c565b93506020850135612b9981612925565b93969395505050506040820135916060013590565b60008060408385031215612bc157600080fd5b50508035926020909101359150565b600080600060608486031215612be557600080fd5b505081359360208301359350604090920135919050565b600060208284031215612c0e57600080fd5b8135610d3281612925565b60008083601f840112612c2b57600080fd5b50813567ffffffffffffffff811115612c4357600080fd5b6020830191508360208260051b8501011115612aea57600080fd5b60008060008060008060006080888a031215612c7957600080fd5b612c828861290c565b9650602088013567ffffffffffffffff80821115612c9f57600080fd5b612cab8b838c01612c19565b909850965060408a0135915080821115612cc457600080fd5b612cd08b838c01612c19565b909650945060608a0135915080821115612ce957600080fd5b50612cf68a828b01612c19565b989b979a50959850939692959293505050565b600080600080600060808688031215612d2157600080fd5b853594506020860135935060408601359250606086013567ffffffffffffffff811115612d4d57600080fd5b612d5988828901612aa8565b969995985093965092949392505050565b60008060408385031215612d7d57600080fd5b8235612d8881612925565b91506020830135801515811461296657600080fd5b634e487b7160e01b600052604160045260246000fd5b60008060008060808587031215612dc957600080fd5b8435612dd481612925565b93506020850135612de481612925565b925060408501359150606085013567ffffffffffffffff80821115612e0857600080fd5b818701915087601f830112612e1c57600080fd5b813581811115612e2e57612e2e612d9d565b604051601f8201601f19908116603f01168101908382118183101715612e5657612e56612d9d565b816040528281528a6020848701011115612e6f57600080fd5b82602086016020830137600060208483010152809550505050505092959194509250565b600080600060408486031215612ea857600080fd5b612eb18461290c565b9250602084013567ffffffffffffffff811115612ecd57600080fd5b612ed986828701612c19565b9497909650939450505050565b6020808252825182820181905260009190848201906040850190845b81811015612f1e57835183529284019291840191600101612f02565b50909695505050505050565b60008060408385031215612f3d57600080fd5b823561295681612925565b60008060408385031215612f5b57600080fd5b612a3e8361290c565b6020808252825182820181905260009190848201906040850190845b81811015612f1e57835163ffffffff1683529284019291840191600101612f80565b634e487b7160e01b600052601160045260246000fd5b600060018201612fca57612fca612fa2565b5060010190565b600181811c90821680612fe557607f821691505b60208210810361300557634e487b7160e01b600052602260045260246000fd5b50919050565b60006020828403121561301d57600080fd5b8151610d3281612925565b60208152816020820152818360408301376000818301604090810191909152601f909201601f19160101919050565b8082018082111561093557610935612fa2565b63ffffffff81811683821601908082111561308757613087612fa2565b5092915050565b634e487b7160e01b600052603260045260246000fd5b600083516130b68184602088016129a4565b8351908301906130ca8183602088016129a4565b01949350505050565b6001600160a01b0385811682528416602082015260408101839052608060608201819052600090613106908301846129c8565b9695505050505050565b60006020828403121561312257600080fd5b8151610d3281612971565b634e487b7160e01b600052602160045260246000fdfe8344903e81b8018c43023f2fa6df54715a4173650c100ea1f85fba21f44873b9a2646970667358221220a4df62a7403cda9a36fd21284e9c7277f4303b93182727afecd1cf5258c9afa564736f6c63430008140033",
  "linkReferences": {},
  "deployedLinkReferences": {}
}